{"contracts/ModifyVariable.sol":{"ModifyVariable":{"abi":[{"inputs":[{"internalType":"uint256","name":"_x","type":"uint256"},{"internalType":"uint256","name":"_y","type":"uint256"}],"stateMutability":"nonpayable","type":"constructor"},{"inputs":[{"internalType":"string","name":"userWord","type":"string"}],"name":"changeString","outputs":[],"stateMutability":"nonpayable","type":"function"},{"inputs":[{"internalType":"uint256","name":"h","type":"uint256"}],"name":"customLeet","outputs":[],"stateMutability":"nonpayable","type":"function"},{"inputs":[{"internalType":"uint256","name":"z","type":"uint256"}],"name":"differenceWith","outputs":[{"internalType":"uint256","name":"","type":"uint256"}],"stateMutability":"view","type":"function"},{"inputs":[],"name":"getLeet","outputs":[],"stateMutability":"nonpayable","type":"function"},{"inputs":[],"name":"secretString","outputs":[{"internalType":"string","name":"","type":"string"}],"stateMutability":"view","type":"function"},{"inputs":[],"name":"senderIs","outputs":[{"internalType":"address","name":"","type":"address"}],"stateMutability":"view","type":"function"},{"inputs":[],"name":"x","outputs":[{"internalType":"uint256","name":"","type":"uint256"}],"stateMutability":"view","type":"function"},{"inputs":[],"name":"y","outputs":[{"internalType":"uint256","name":"","type":"uint256"}],"stateMutability":"view","type":"function"}],"evm":{"bytecode":{"linkReferences":{},"object":"608060405260146002553480156200001657600080fd5b50604051620009fa380380620009fa83398181016040528101906200003c919062000165565b8160008190555060025490506040518060400160405280601881526020017f4c657427732074727920746f206d6f646966792074686973000000000000000081525060019080519060200190620000959291906200009e565b5050506200022f565b828054620000ac90620001b0565b90600052602060002090601f016020900481019282620000d057600085556200011c565b82601f10620000eb57805160ff19168380011785556200011c565b828001600101855582156200011c579182015b828111156200011b578251825591602001919060010190620000fe565b5b5090506200012b91906200012f565b5090565b5b808211156200014a57600081600090555060010162000130565b5090565b6000815190506200015f8162000215565b92915050565b600080604083850312156200017957600080fd5b600062000189858286016200014e565b92505060206200019c858286016200014e565b9150509250929050565b6000819050919050565b60006002820490506001821680620001c957607f821691505b60208210811415620001e057620001df620001e6565b5b50919050565b7f4e487b7100000000000000000000000000000000000000000000000000000000600052602260045260246000fd5b6200022081620001a6565b81146200022c57600080fd5b50565b6107bb806200023f6000396000f3fe608060405234801561001057600080fd5b50600436106100885760003560e01c8063a56dfe4a1161005b578063a56dfe4a14610115578063c6a85f5314610133578063df1da9791461014f578063fe19b1af1461015957610088565b80630c55699c1461008d5780635dd8e1c9146100ab5780636334c29c146100c7578063a1c01945146100e5575b600080fd5b610095610177565b6040516100a29190610505565b60405180910390f35b6100c560048036038101906100c091906103c4565b61017d565b005b6100cf610197565b6040516100dc91906104c3565b60405180910390f35b6100ff60048036038101906100fa9190610405565b610225565b60405161010c9190610505565b60405180910390f35b61011d610281565b60405161012a9190610505565b60405180910390f35b61014d60048036038101906101489190610405565b610287565b005b610157610291565b005b61016161029c565b60405161016e91906104a8565b60405180910390f35b60005481565b80600190805190602001906101939291906102a4565b5050565b600180546101a490610644565b80601f01602080910402602001604051908101604052809291908181526020018280546101d090610644565b801561021d5780601f106101f25761010080835404028352916020019161021d565b820191906000526020600020905b81548152906001019060200180831161020057829003601f168201915b505050505081565b600081600054101561026c576040517f08c379a0000000000000000000000000000000000000000000000000000000008152600401610263906104e5565b60405180910390fd5b8160005461027a9190610592565b9050919050565b60025481565b8060008190555050565b610539600081905550565b600033905090565b8280546102b090610644565b90600052602060002090601f0160209004810192826102d25760008555610319565b82601f106102eb57805160ff1916838001178555610319565b82800160010185558215610319579182015b828111156103185782518255916020019190600101906102fd565b5b509050610326919061032a565b5090565b5b8082111561034357600081600090555060010161032b565b5090565b600061035a61035584610545565b610520565b90508281526020810184848401111561037257600080fd5b61037d848285610602565b509392505050565b600082601f83011261039657600080fd5b81356103a6848260208601610347565b91505092915050565b6000813590506103be8161076e565b92915050565b6000602082840312156103d657600080fd5b600082013567ffffffffffffffff8111156103f057600080fd5b6103fc84828501610385565b91505092915050565b60006020828403121561041757600080fd5b6000610425848285016103af565b91505092915050565b610437816105c6565b82525050565b600061044882610576565b6104528185610581565b9350610462818560208601610611565b61046b81610734565b840191505092915050565b6000610483600983610581565b915061048e82610745565b602082019050919050565b6104a2816105f8565b82525050565b60006020820190506104bd600083018461042e565b92915050565b600060208201905081810360008301526104dd818461043d565b905092915050565b600060208201905081810360008301526104fe81610476565b9050919050565b600060208201905061051a6000830184610499565b92915050565b600061052a61053b565b90506105368282610676565b919050565b6000604051905090565b600067ffffffffffffffff8211156105605761055f610705565b5b61056982610734565b9050602081019050919050565b600081519050919050565b600082825260208201905092915050565b600061059d826105f8565b91506105a8836105f8565b9250828210156105bb576105ba6106a7565b5b828203905092915050565b60006105d1826105d8565b9050919050565b600073ffffffffffffffffffffffffffffffffffffffff82169050919050565b6000819050919050565b82818337600083830152505050565b60005b8381101561062f578082015181840152602081019050610614565b8381111561063e576000848401525b50505050565b6000600282049050600182168061065c57607f821691505b602082108114156106705761066f6106d6565b5b50919050565b61067f82610734565b810181811067ffffffffffffffff8211171561069e5761069d610705565b5b80604052505050565b7f4e487b7100000000000000000000000000000000000000000000000000000000600052601160045260246000fd5b7f4e487b7100000000000000000000000000000000000000000000000000000000600052602260045260246000fd5b7f4e487b7100000000000000000000000000000000000000000000000000000000600052604160045260246000fd5b6000601f19601f8301169050919050565b7f546f6f20736d616c6c0000000000000000000000000000000000000000000000600082015250565b610777816105f8565b811461078257600080fd5b5056fea2646970667358221220a9d3d27fee5c7dd0de4b86ed2e68711d93a6029cb11ec49e64b8e7f247f3322264736f6c63430008040033","opcodes":"PUSH1 0x80 PUSH1 0x40 MSTORE PUSH1 0x14 PUSH1 0x2 SSTORE CALLVALUE DUP1 ISZERO PUSH3 0x16 JUMPI PUSH1 0x0 DUP1 REVERT JUMPDEST POP PUSH1 0x40 MLOAD PUSH3 0x9FA CODESIZE SUB DUP1 PUSH3 0x9FA DUP4 CODECOPY DUP2 DUP2 ADD PUSH1 0x40 MSTORE DUP2 ADD SWAP1 PUSH3 0x3C SWAP2 SWAP1 PUSH3 0x165 JUMP JUMPDEST DUP2 PUSH1 0x0 DUP2 SWAP1 SSTORE POP PUSH1 0x2 SLOAD SWAP1 POP PUSH1 0x40 MLOAD DUP1 PUSH1 0x40 ADD PUSH1 0x40 MSTORE DUP1 PUSH1 0x18 DUP2 MSTORE PUSH1 0x20 ADD PUSH32 0x4C657427732074727920746F206D6F6469667920746869730000000000000000 DUP2 MSTORE POP PUSH1 0x1 SWAP1 DUP1 MLOAD SWAP1 PUSH1 0x20 ADD SWAP1 PUSH3 0x95 SWAP3 SWAP2 SWAP1 PUSH3 0x9E JUMP JUMPDEST POP POP POP PUSH3 0x22F JUMP JUMPDEST DUP3 DUP1 SLOAD PUSH3 0xAC SWAP1 PUSH3 0x1B0 JUMP JUMPDEST SWAP1 PUSH1 0x0 MSTORE PUSH1 0x20 PUSH1 0x0 KECCAK256 SWAP1 PUSH1 0x1F ADD PUSH1 0x20 SWAP1 DIV DUP2 ADD SWAP3 DUP3 PUSH3 0xD0 JUMPI PUSH1 0x0 DUP6 SSTORE PUSH3 0x11C JUMP JUMPDEST DUP3 PUSH1 0x1F LT PUSH3 0xEB JUMPI DUP1 MLOAD PUSH1 0xFF NOT AND DUP4 DUP1 ADD OR DUP6 SSTORE PUSH3 0x11C JUMP JUMPDEST DUP3 DUP1 ADD PUSH1 0x1 ADD DUP6 SSTORE DUP3 ISZERO PUSH3 0x11C JUMPI SWAP2 DUP3 ADD JUMPDEST DUP3 DUP2 GT ISZERO PUSH3 0x11B JUMPI DUP3 MLOAD DUP3 SSTORE SWAP2 PUSH1 0x20 ADD SWAP2 SWAP1 PUSH1 0x1 ADD SWAP1 PUSH3 0xFE JUMP JUMPDEST JUMPDEST POP SWAP1 POP PUSH3 0x12B SWAP2 SWAP1 PUSH3 0x12F JUMP JUMPDEST POP SWAP1 JUMP JUMPDEST JUMPDEST DUP1 DUP3 GT ISZERO PUSH3 0x14A JUMPI PUSH1 0x0 DUP2 PUSH1 0x0 SWAP1 SSTORE POP PUSH1 0x1 ADD PUSH3 0x130 JUMP JUMPDEST POP SWAP1 JUMP JUMPDEST PUSH1 0x0 DUP2 MLOAD SWAP1 POP PUSH3 0x15F DUP2 PUSH3 0x215 JUMP JUMPDEST SWAP3 SWAP2 POP POP JUMP JUMPDEST PUSH1 0x0 DUP1 PUSH1 0x40 DUP4 DUP6 SUB SLT ISZERO PUSH3 0x179 JUMPI PUSH1 0x0 DUP1 REVERT JUMPDEST PUSH1 0x0 PUSH3 0x189 DUP6 DUP3 DUP7 ADD PUSH3 0x14E JUMP JUMPDEST SWAP3 POP POP PUSH1 0x20 PUSH3 0x19C DUP6 DUP3 DUP7 ADD PUSH3 0x14E JUMP JUMPDEST SWAP2 POP POP SWAP3 POP SWAP3 SWAP1 POP JUMP JUMPDEST PUSH1 0x0 DUP2 SWAP1 POP SWAP2 SWAP1 POP JUMP JUMPDEST PUSH1 0x0 PUSH1 0x2 DUP3 DIV SWAP1 POP PUSH1 0x1 DUP3 AND DUP1 PUSH3 0x1C9 JUMPI PUSH1 0x7F DUP3 AND SWAP2 POP JUMPDEST PUSH1 0x20 DUP3 LT DUP2 EQ ISZERO PUSH3 0x1E0 JUMPI PUSH3 0x1DF PUSH3 0x1E6 JUMP JUMPDEST JUMPDEST POP SWAP2 SWAP1 POP JUMP JUMPDEST PUSH32 0x4E487B7100000000000000000000000000000000000000000000000000000000 PUSH1 0x0 MSTORE PUSH1 0x22 PUSH1 0x4 MSTORE PUSH1 0x24 PUSH1 0x0 REVERT JUMPDEST PUSH3 0x220 DUP2 PUSH3 0x1A6 JUMP JUMPDEST DUP2 EQ PUSH3 0x22C JUMPI PUSH1 0x0 DUP1 REVERT JUMPDEST POP JUMP JUMPDEST PUSH2 0x7BB DUP1 PUSH3 0x23F PUSH1 0x0 CODECOPY PUSH1 0x0 RETURN INVALID PUSH1 0x80 PUSH1 0x40 MSTORE CALLVALUE DUP1 ISZERO PUSH2 0x10 JUMPI PUSH1 0x0 DUP1 REVERT JUMPDEST POP PUSH1 0x4 CALLDATASIZE LT PUSH2 0x88 JUMPI PUSH1 0x0 CALLDATALOAD PUSH1 0xE0 SHR DUP1 PUSH4 0xA56DFE4A GT PUSH2 0x5B JUMPI DUP1 PUSH4 0xA56DFE4A EQ PUSH2 0x115 JUMPI DUP1 PUSH4 0xC6A85F53 EQ PUSH2 0x133 JUMPI DUP1 PUSH4 0xDF1DA979 EQ PUSH2 0x14F JUMPI DUP1 PUSH4 0xFE19B1AF EQ PUSH2 0x159 JUMPI PUSH2 0x88 JUMP JUMPDEST DUP1 PUSH4 0xC55699C EQ PUSH2 0x8D JUMPI DUP1 PUSH4 0x5DD8E1C9 EQ PUSH2 0xAB JUMPI DUP1 PUSH4 0x6334C29C EQ PUSH2 0xC7 JUMPI DUP1 PUSH4 0xA1C01945 EQ PUSH2 0xE5 JUMPI JUMPDEST PUSH1 0x0 DUP1 REVERT JUMPDEST PUSH2 0x95 PUSH2 0x177 JUMP JUMPDEST PUSH1 0x40 MLOAD PUSH2 0xA2 SWAP2 SWAP1 PUSH2 0x505 JUMP JUMPDEST PUSH1 0x40 MLOAD DUP1 SWAP2 SUB SWAP1 RETURN JUMPDEST PUSH2 0xC5 PUSH1 0x4 DUP1 CALLDATASIZE SUB DUP2 ADD SWAP1 PUSH2 0xC0 SWAP2 SWAP1 PUSH2 0x3C4 JUMP JUMPDEST PUSH2 0x17D JUMP JUMPDEST STOP JUMPDEST PUSH2 0xCF PUSH2 0x197 JUMP JUMPDEST PUSH1 0x40 MLOAD PUSH2 0xDC SWAP2 SWAP1 PUSH2 0x4C3 JUMP JUMPDEST PUSH1 0x40 MLOAD DUP1 SWAP2 SUB SWAP1 RETURN JUMPDEST PUSH2 0xFF PUSH1 0x4 DUP1 CALLDATASIZE SUB DUP2 ADD SWAP1 PUSH2 0xFA SWAP2 SWAP1 PUSH2 0x405 JUMP JUMPDEST PUSH2 0x225 JUMP JUMPDEST PUSH1 0x40 MLOAD PUSH2 0x10C SWAP2 SWAP1 PUSH2 0x505 JUMP JUMPDEST PUSH1 0x40 MLOAD DUP1 SWAP2 SUB SWAP1 RETURN JUMPDEST PUSH2 0x11D PUSH2 0x281 JUMP JUMPDEST PUSH1 0x40 MLOAD PUSH2 0x12A SWAP2 SWAP1 PUSH2 0x505 JUMP JUMPDEST PUSH1 0x40 MLOAD DUP1 SWAP2 SUB SWAP1 RETURN JUMPDEST PUSH2 0x14D PUSH1 0x4 DUP1 CALLDATASIZE SUB DUP2 ADD SWAP1 PUSH2 0x148 SWAP2 SWAP1 PUSH2 0x405 JUMP JUMPDEST PUSH2 0x287 JUMP JUMPDEST STOP JUMPDEST PUSH2 0x157 PUSH2 0x291 JUMP JUMPDEST STOP JUMPDEST PUSH2 0x161 PUSH2 0x29C JUMP JUMPDEST PUSH1 0x40 MLOAD PUSH2 0x16E SWAP2 SWAP1 PUSH2 0x4A8 JUMP JUMPDEST PUSH1 0x40 MLOAD DUP1 SWAP2 SUB SWAP1 RETURN JUMPDEST PUSH1 0x0 SLOAD DUP2 JUMP JUMPDEST DUP1 PUSH1 0x1 SWAP1 DUP1 MLOAD SWAP1 PUSH1 0x20 ADD SWAP1 PUSH2 0x193 SWAP3 SWAP2 SWAP1 PUSH2 0x2A4 JUMP JUMPDEST POP POP JUMP JUMPDEST PUSH1 0x1 DUP1 SLOAD PUSH2 0x1A4 SWAP1 PUSH2 0x644 JUMP JUMPDEST DUP1 PUSH1 0x1F ADD PUSH1 0x20 DUP1 SWAP2 DIV MUL PUSH1 0x20 ADD PUSH1 0x40 MLOAD SWAP1 DUP2 ADD PUSH1 0x40 MSTORE DUP1 SWAP3 SWAP2 SWAP1 DUP2 DUP2 MSTORE PUSH1 0x20 ADD DUP3 DUP1 SLOAD PUSH2 0x1D0 SWAP1 PUSH2 0x644 JUMP JUMPDEST DUP1 ISZERO PUSH2 0x21D JUMPI DUP1 PUSH1 0x1F LT PUSH2 0x1F2 JUMPI PUSH2 0x100 DUP1 DUP4 SLOAD DIV MUL DUP4 MSTORE SWAP2 PUSH1 0x20 ADD SWAP2 PUSH2 0x21D JUMP JUMPDEST DUP3 ADD SWAP2 SWAP1 PUSH1 0x0 MSTORE PUSH1 0x20 PUSH1 0x0 KECCAK256 SWAP1 JUMPDEST DUP2 SLOAD DUP2 MSTORE SWAP1 PUSH1 0x1 ADD SWAP1 PUSH1 0x20 ADD DUP1 DUP4 GT PUSH2 0x200 JUMPI DUP3 SWAP1 SUB PUSH1 0x1F AND DUP3 ADD SWAP2 JUMPDEST POP POP POP POP POP DUP2 JUMP JUMPDEST PUSH1 0x0 DUP2 PUSH1 0x0 SLOAD LT ISZERO PUSH2 0x26C JUMPI PUSH1 0x40 MLOAD PUSH32 0x8C379A000000000000000000000000000000000000000000000000000000000 DUP2 MSTORE PUSH1 0x4 ADD PUSH2 0x263 SWAP1 PUSH2 0x4E5 JUMP JUMPDEST PUSH1 0x40 MLOAD DUP1 SWAP2 SUB SWAP1 REVERT JUMPDEST DUP2 PUSH1 0x0 SLOAD PUSH2 0x27A SWAP2 SWAP1 PUSH2 0x592 JUMP JUMPDEST SWAP1 POP SWAP2 SWAP1 POP JUMP JUMPDEST PUSH1 0x2 SLOAD DUP2 JUMP JUMPDEST DUP1 PUSH1 0x0 DUP2 SWAP1 SSTORE POP POP JUMP JUMPDEST PUSH2 0x539 PUSH1 0x0 DUP2 SWAP1 SSTORE POP JUMP JUMPDEST PUSH1 0x0 CALLER SWAP1 POP SWAP1 JUMP JUMPDEST DUP3 DUP1 SLOAD PUSH2 0x2B0 SWAP1 PUSH2 0x644 JUMP JUMPDEST SWAP1 PUSH1 0x0 MSTORE PUSH1 0x20 PUSH1 0x0 KECCAK256 SWAP1 PUSH1 0x1F ADD PUSH1 0x20 SWAP1 DIV DUP2 ADD SWAP3 DUP3 PUSH2 0x2D2 JUMPI PUSH1 0x0 DUP6 SSTORE PUSH2 0x319 JUMP JUMPDEST DUP3 PUSH1 0x1F LT PUSH2 0x2EB JUMPI DUP1 MLOAD PUSH1 0xFF NOT AND DUP4 DUP1 ADD OR DUP6 SSTORE PUSH2 0x319 JUMP JUMPDEST DUP3 DUP1 ADD PUSH1 0x1 ADD DUP6 SSTORE DUP3 ISZERO PUSH2 0x319 JUMPI SWAP2 DUP3 ADD JUMPDEST DUP3 DUP2 GT ISZERO PUSH2 0x318 JUMPI DUP3 MLOAD DUP3 SSTORE SWAP2 PUSH1 0x20 ADD SWAP2 SWAP1 PUSH1 0x1 ADD SWAP1 PUSH2 0x2FD JUMP JUMPDEST JUMPDEST POP SWAP1 POP PUSH2 0x326 SWAP2 SWAP1 PUSH2 0x32A JUMP JUMPDEST POP SWAP1 JUMP JUMPDEST JUMPDEST DUP1 DUP3 GT ISZERO PUSH2 0x343 JUMPI PUSH1 0x0 DUP2 PUSH1 0x0 SWAP1 SSTORE POP PUSH1 0x1 ADD PUSH2 0x32B JUMP JUMPDEST POP SWAP1 JUMP JUMPDEST PUSH1 0x0 PUSH2 0x35A PUSH2 0x355 DUP5 PUSH2 0x545 JUMP JUMPDEST PUSH2 0x520 JUMP JUMPDEST SWAP1 POP DUP3 DUP2 MSTORE PUSH1 0x20 DUP2 ADD DUP5 DUP5 DUP5 ADD GT ISZERO PUSH2 0x372 JUMPI PUSH1 0x0 DUP1 REVERT JUMPDEST PUSH2 0x37D DUP5 DUP3 DUP6 PUSH2 0x602 JUMP JUMPDEST POP SWAP4 SWAP3 POP POP POP JUMP JUMPDEST PUSH1 0x0 DUP3 PUSH1 0x1F DUP4 ADD SLT PUSH2 0x396 JUMPI PUSH1 0x0 DUP1 REVERT JUMPDEST DUP2 CALLDATALOAD PUSH2 0x3A6 DUP5 DUP3 PUSH1 0x20 DUP7 ADD PUSH2 0x347 JUMP JUMPDEST SWAP2 POP POP SWAP3 SWAP2 POP POP JUMP JUMPDEST PUSH1 0x0 DUP2 CALLDATALOAD SWAP1 POP PUSH2 0x3BE DUP2 PUSH2 0x76E JUMP JUMPDEST SWAP3 SWAP2 POP POP JUMP JUMPDEST PUSH1 0x0 PUSH1 0x20 DUP3 DUP5 SUB SLT ISZERO PUSH2 0x3D6 JUMPI PUSH1 0x0 DUP1 REVERT JUMPDEST PUSH1 0x0 DUP3 ADD CALLDATALOAD PUSH8 0xFFFFFFFFFFFFFFFF DUP2 GT ISZERO PUSH2 0x3F0 JUMPI PUSH1 0x0 DUP1 REVERT JUMPDEST PUSH2 0x3FC DUP5 DUP3 DUP6 ADD PUSH2 0x385 JUMP JUMPDEST SWAP2 POP POP SWAP3 SWAP2 POP POP JUMP JUMPDEST PUSH1 0x0 PUSH1 0x20 DUP3 DUP5 SUB SLT ISZERO PUSH2 0x417 JUMPI PUSH1 0x0 DUP1 REVERT JUMPDEST PUSH1 0x0 PUSH2 0x425 DUP5 DUP3 DUP6 ADD PUSH2 0x3AF JUMP JUMPDEST SWAP2 POP POP SWAP3 SWAP2 POP POP JUMP JUMPDEST PUSH2 0x437 DUP2 PUSH2 0x5C6 JUMP JUMPDEST DUP3 MSTORE POP POP JUMP JUMPDEST PUSH1 0x0 PUSH2 0x448 DUP3 PUSH2 0x576 JUMP JUMPDEST PUSH2 0x452 DUP2 DUP6 PUSH2 0x581 JUMP JUMPDEST SWAP4 POP PUSH2 0x462 DUP2 DUP6 PUSH1 0x20 DUP7 ADD PUSH2 0x611 JUMP JUMPDEST PUSH2 0x46B DUP2 PUSH2 0x734 JUMP JUMPDEST DUP5 ADD SWAP2 POP POP SWAP3 SWAP2 POP POP JUMP JUMPDEST PUSH1 0x0 PUSH2 0x483 PUSH1 0x9 DUP4 PUSH2 0x581 JUMP JUMPDEST SWAP2 POP PUSH2 0x48E DUP3 PUSH2 0x745 JUMP JUMPDEST PUSH1 0x20 DUP3 ADD SWAP1 POP SWAP2 SWAP1 POP JUMP JUMPDEST PUSH2 0x4A2 DUP2 PUSH2 0x5F8 JUMP JUMPDEST DUP3 MSTORE POP POP JUMP JUMPDEST PUSH1 0x0 PUSH1 0x20 DUP3 ADD SWAP1 POP PUSH2 0x4BD PUSH1 0x0 DUP4 ADD DUP5 PUSH2 0x42E JUMP JUMPDEST SWAP3 SWAP2 POP POP JUMP JUMPDEST PUSH1 0x0 PUSH1 0x20 DUP3 ADD SWAP1 POP DUP2 DUP2 SUB PUSH1 0x0 DUP4 ADD MSTORE PUSH2 0x4DD DUP2 DUP5 PUSH2 0x43D JUMP JUMPDEST SWAP1 POP SWAP3 SWAP2 POP POP JUMP JUMPDEST PUSH1 0x0 PUSH1 0x20 DUP3 ADD SWAP1 POP DUP2 DUP2 SUB PUSH1 0x0 DUP4 ADD MSTORE PUSH2 0x4FE DUP2 PUSH2 0x476 JUMP JUMPDEST SWAP1 POP SWAP2 SWAP1 POP JUMP JUMPDEST PUSH1 0x0 PUSH1 0x20 DUP3 ADD SWAP1 POP PUSH2 0x51A PUSH1 0x0 DUP4 ADD DUP5 PUSH2 0x499 JUMP JUMPDEST SWAP3 SWAP2 POP POP JUMP JUMPDEST PUSH1 0x0 PUSH2 0x52A PUSH2 0x53B JUMP JUMPDEST SWAP1 POP PUSH2 0x536 DUP3 DUP3 PUSH2 0x676 JUMP JUMPDEST SWAP2 SWAP1 POP JUMP JUMPDEST PUSH1 0x0 PUSH1 0x40 MLOAD SWAP1 POP SWAP1 JUMP JUMPDEST PUSH1 0x0 PUSH8 0xFFFFFFFFFFFFFFFF DUP3 GT ISZERO PUSH2 0x560 JUMPI PUSH2 0x55F PUSH2 0x705 JUMP JUMPDEST JUMPDEST PUSH2 0x569 DUP3 PUSH2 0x734 JUMP JUMPDEST SWAP1 POP PUSH1 0x20 DUP2 ADD SWAP1 POP SWAP2 SWAP1 POP JUMP JUMPDEST PUSH1 0x0 DUP2 MLOAD SWAP1 POP SWAP2 SWAP1 POP JUMP JUMPDEST PUSH1 0x0 DUP3 DUP3 MSTORE PUSH1 0x20 DUP3 ADD SWAP1 POP SWAP3 SWAP2 POP POP JUMP JUMPDEST PUSH1 0x0 PUSH2 0x59D DUP3 PUSH2 0x5F8 JUMP JUMPDEST SWAP2 POP PUSH2 0x5A8 DUP4 PUSH2 0x5F8 JUMP JUMPDEST SWAP3 POP DUP3 DUP3 LT ISZERO PUSH2 0x5BB JUMPI PUSH2 0x5BA PUSH2 0x6A7 JUMP JUMPDEST JUMPDEST DUP3 DUP3 SUB SWAP1 POP SWAP3 SWAP2 POP POP JUMP JUMPDEST PUSH1 0x0 PUSH2 0x5D1 DUP3 PUSH2 0x5D8 JUMP JUMPDEST SWAP1 POP SWAP2 SWAP1 POP JUMP JUMPDEST PUSH1 0x0 PUSH20 0xFFFFFFFFFFFFFFFFFFFFFFFFFFFFFFFFFFFFFFFF DUP3 AND SWAP1 POP SWAP2 SWAP1 POP JUMP JUMPDEST PUSH1 0x0 DUP2 SWAP1 POP SWAP2 SWAP1 POP JUMP JUMPDEST DUP3 DUP2 DUP4 CALLDATACOPY PUSH1 0x0 DUP4 DUP4 ADD MSTORE POP POP POP JUMP JUMPDEST PUSH1 0x0 JUMPDEST DUP4 DUP2 LT ISZERO PUSH2 0x62F JUMPI DUP1 DUP3 ADD MLOAD DUP2 DUP5 ADD MSTORE PUSH1 0x20 DUP2 ADD SWAP1 POP PUSH2 0x614 JUMP JUMPDEST DUP4 DUP2 GT ISZERO PUSH2 0x63E JUMPI PUSH1 0x0 DUP5 DUP5 ADD MSTORE JUMPDEST POP POP POP POP JUMP JUMPDEST PUSH1 0x0 PUSH1 0x2 DUP3 DIV SWAP1 POP PUSH1 0x1 DUP3 AND DUP1 PUSH2 0x65C JUMPI PUSH1 0x7F DUP3 AND SWAP2 POP JUMPDEST PUSH1 0x20 DUP3 LT DUP2 EQ ISZERO PUSH2 0x670 JUMPI PUSH2 0x66F PUSH2 0x6D6 JUMP JUMPDEST JUMPDEST POP SWAP2 SWAP1 POP JUMP JUMPDEST PUSH2 0x67F DUP3 PUSH2 0x734 JUMP JUMPDEST DUP2 ADD DUP2 DUP2 LT PUSH8 0xFFFFFFFFFFFFFFFF DUP3 GT OR ISZERO PUSH2 0x69E JUMPI PUSH2 0x69D PUSH2 0x705 JUMP JUMPDEST JUMPDEST DUP1 PUSH1 0x40 MSTORE POP POP POP JUMP JUMPDEST PUSH32 0x4E487B7100000000000000000000000000000000000000000000000000000000 PUSH1 0x0 MSTORE PUSH1 0x11 PUSH1 0x4 MSTORE PUSH1 0x24 PUSH1 0x0 REVERT JUMPDEST PUSH32 0x4E487B7100000000000000000000000000000000000000000000000000000000 PUSH1 0x0 MSTORE PUSH1 0x22 PUSH1 0x4 MSTORE PUSH1 0x24 PUSH1 0x0 REVERT JUMPDEST PUSH32 0x4E487B7100000000000000000000000000000000000000000000000000000000 PUSH1 0x0 MSTORE PUSH1 0x41 PUSH1 0x4 MSTORE PUSH1 0x24 PUSH1 0x0 REVERT JUMPDEST PUSH1 0x0 PUSH1 0x1F NOT PUSH1 0x1F DUP4 ADD AND SWAP1 POP SWAP2 SWAP1 POP JUMP JUMPDEST PUSH32 0x546F6F20736D616C6C0000000000000000000000000000000000000000000000 PUSH1 0x0 DUP3 ADD MSTORE POP JUMP JUMPDEST PUSH2 0x777 DUP2 PUSH2 0x5F8 JUMP JUMPDEST DUP2 EQ PUSH2 0x782 JUMPI PUSH1 0x0 DUP1 REVERT JUMPDEST POP JUMP INVALID LOG2 PUSH5 0x6970667358 0x22 SLT KECCAK256 0xA9 0xD3 0xD2 PUSH32 0xEE5C7DD0DE4B86ED2E68711D93A6029CB11EC49E64B8E7F247F3322264736F6C PUSH4 0x43000804 STOP CALLER "},"methodIdentifiers":{"changeString(string)":"5dd8e1c9","customLeet(uint256)":"c6a85f53","differenceWith(uint256)":"a1c01945","getLeet()":"df1da979","secretString()":"6334c29c","senderIs()":"fe19b1af","x()":"0c55699c","y()":"a56dfe4a"}}}}}