{
  "_format": "hh-sol-artifact-1",
  "contractName": "ModifyVariable",
  "sourceName": "contracts/ModifyVariable.sol",
  "abi": [
    {
      "inputs": [
        {
          "internalType": "uint256",
          "name": "_x",
          "type": "uint256"
        },
        {
          "internalType": "uint256",
          "name": "_y",
          "type": "uint256"
        }
      ],
      "stateMutability": "nonpayable",
      "type": "constructor"
    },
    {
      "inputs": [
        {
          "internalType": "string",
          "name": "userWord",
          "type": "string"
        }
      ],
      "name": "changeString",
      "outputs": [],
      "stateMutability": "nonpayable",
      "type": "function"
    },
    {
      "inputs": [
        {
          "internalType": "uint256",
          "name": "h",
          "type": "uint256"
        }
      ],
      "name": "customLeet",
      "outputs": [],
      "stateMutability": "nonpayable",
      "type": "function"
    },
    {
      "inputs": [
        {
          "internalType": "uint256",
          "name": "z",
          "type": "uint256"
        }
      ],
      "name": "differenceWith",
      "outputs": [
        {
          "internalType": "uint256",
          "name": "",
          "type": "uint256"
        }
      ],
      "stateMutability": "view",
      "type": "function"
    },
    {
      "inputs": [],
      "name": "getLeet",
      "outputs": [],
      "stateMutability": "nonpayable",
      "type": "function"
    },
    {
      "inputs": [],
      "name": "secretString",
      "outputs": [
        {
          "internalType": "string",
          "name": "",
          "type": "string"
        }
      ],
      "stateMutability": "view",
      "type": "function"
    },
    {
      "inputs": [],
      "name": "senderIs",
      "outputs": [
        {
          "internalType": "address",
          "name": "",
          "type": "address"
        }
      ],
      "stateMutability": "view",
      "type": "function"
    },
    {
      "inputs": [],
      "name": "x",
      "outputs": [
        {
          "internalType": "uint256",
          "name": "",
          "type": "uint256"
        }
      ],
      "stateMutability": "view",
      "type": "function"
    },
    {
      "inputs": [],
      "name": "y",
      "outputs": [
        {
          "internalType": "uint256",
          "name": "",
          "type": "uint256"
        }
      ],
      "stateMutability": "view",
      "type": "function"
    }
  ],
  "bytecode": "0x608060405260146002553480156200001657600080fd5b50604051620009fa380380620009fa83398181016040528101906200003c919062000165565b8160008190555060025490506040518060400160405280601881526020017f4c657427732074727920746f206d6f646966792074686973000000000000000081525060019080519060200190620000959291906200009e565b5050506200022f565b828054620000ac90620001b0565b90600052602060002090601f016020900481019282620000d057600085556200011c565b82601f10620000eb57805160ff19168380011785556200011c565b828001600101855582156200011c579182015b828111156200011b578251825591602001919060010190620000fe565b5b5090506200012b91906200012f565b5090565b5b808211156200014a57600081600090555060010162000130565b5090565b6000815190506200015f8162000215565b92915050565b600080604083850312156200017957600080fd5b600062000189858286016200014e565b92505060206200019c858286016200014e565b9150509250929050565b6000819050919050565b60006002820490506001821680620001c957607f821691505b60208210811415620001e057620001df620001e6565b5b50919050565b7f4e487b7100000000000000000000000000000000000000000000000000000000600052602260045260246000fd5b6200022081620001a6565b81146200022c57600080fd5b50565b6107bb806200023f6000396000f3fe608060405234801561001057600080fd5b50600436106100885760003560e01c8063a56dfe4a1161005b578063a56dfe4a14610115578063c6a85f5314610133578063df1da9791461014f578063fe19b1af1461015957610088565b80630c55699c1461008d5780635dd8e1c9146100ab5780636334c29c146100c7578063a1c01945146100e5575b600080fd5b610095610177565b6040516100a29190610505565b60405180910390f35b6100c560048036038101906100c091906103c4565b61017d565b005b6100cf610197565b6040516100dc91906104c3565b60405180910390f35b6100ff60048036038101906100fa9190610405565b610225565b60405161010c9190610505565b60405180910390f35b61011d610281565b60405161012a9190610505565b60405180910390f35b61014d60048036038101906101489190610405565b610287565b005b610157610291565b005b61016161029c565b60405161016e91906104a8565b60405180910390f35b60005481565b80600190805190602001906101939291906102a4565b5050565b600180546101a490610644565b80601f01602080910402602001604051908101604052809291908181526020018280546101d090610644565b801561021d5780601f106101f25761010080835404028352916020019161021d565b820191906000526020600020905b81548152906001019060200180831161020057829003601f168201915b505050505081565b600081600054101561026c576040517f08c379a0000000000000000000000000000000000000000000000000000000008152600401610263906104e5565b60405180910390fd5b8160005461027a9190610592565b9050919050565b60025481565b8060008190555050565b610539600081905550565b600033905090565b8280546102b090610644565b90600052602060002090601f0160209004810192826102d25760008555610319565b82601f106102eb57805160ff1916838001178555610319565b82800160010185558215610319579182015b828111156103185782518255916020019190600101906102fd565b5b509050610326919061032a565b5090565b5b8082111561034357600081600090555060010161032b565b5090565b600061035a61035584610545565b610520565b90508281526020810184848401111561037257600080fd5b61037d848285610602565b509392505050565b600082601f83011261039657600080fd5b81356103a6848260208601610347565b91505092915050565b6000813590506103be8161076e565b92915050565b6000602082840312156103d657600080fd5b600082013567ffffffffffffffff8111156103f057600080fd5b6103fc84828501610385565b91505092915050565b60006020828403121561041757600080fd5b6000610425848285016103af565b91505092915050565b610437816105c6565b82525050565b600061044882610576565b6104528185610581565b9350610462818560208601610611565b61046b81610734565b840191505092915050565b6000610483600983610581565b915061048e82610745565b602082019050919050565b6104a2816105f8565b82525050565b60006020820190506104bd600083018461042e565b92915050565b600060208201905081810360008301526104dd818461043d565b905092915050565b600060208201905081810360008301526104fe81610476565b9050919050565b600060208201905061051a6000830184610499565b92915050565b600061052a61053b565b90506105368282610676565b919050565b6000604051905090565b600067ffffffffffffffff8211156105605761055f610705565b5b61056982610734565b9050602081019050919050565b600081519050919050565b600082825260208201905092915050565b600061059d826105f8565b91506105a8836105f8565b9250828210156105bb576105ba6106a7565b5b828203905092915050565b60006105d1826105d8565b9050919050565b600073ffffffffffffffffffffffffffffffffffffffff82169050919050565b6000819050919050565b82818337600083830152505050565b60005b8381101561062f578082015181840152602081019050610614565b8381111561063e576000848401525b50505050565b6000600282049050600182168061065c57607f821691505b602082108114156106705761066f6106d6565b5b50919050565b61067f82610734565b810181811067ffffffffffffffff8211171561069e5761069d610705565b5b80604052505050565b7f4e487b7100000000000000000000000000000000000000000000000000000000600052601160045260246000fd5b7f4e487b7100000000000000000000000000000000000000000000000000000000600052602260045260246000fd5b7f4e487b7100000000000000000000000000000000000000000000000000000000600052604160045260246000fd5b6000601f19601f8301169050919050565b7f546f6f20736d616c6c0000000000000000000000000000000000000000000000600082015250565b610777816105f8565b811461078257600080fd5b5056fea2646970667358221220a9d3d27fee5c7dd0de4b86ed2e68711d93a6029cb11ec49e64b8e7f247f3322264736f6c63430008040033",
  "linkReferences": {},
  "deployedLinkReferences": {}
}